:020000040800F2
:1000000000000520DD7D0008692800086B28000835
:100010006D2800086F280008712800080000000003
:10002000000000000000000000000000417900080E
:100030007328000800000000E1790008457A0008F4
:100040002D7E00082D7E00082D7E00082D7E0008E4
:100050002D7E00082D7E00082D7E00082D7E0008D4
:100060002D7E00082D7E00082D7E00082D7E0008C4
:100070002D7E00082D7E00082D7E00082D7E0008B4
:100080002D7E00082D7E00082D7E00082D7E0008A4
:10009000752800082D7E00082D7E00082D7E0008A2
:1000A0002D7E00082D7E00082D7E00082D7E000884
:1000B0002D7E00082D7E00082D7E00082D7E000874
:1000C0002D7E00082D7E00082D7E00082D7E000864
:1000D0002D7E00082D7E00082D7E00082D7E000854
:1000E0002D7E00082D7E00082D7E00082D7E000844
:1000F0002D7E00082D7E00082D7E00082D7E000834
:100100002D7E00082D7E00082D7E00082D7E000823
:100110002D7E00082D7E0008852800082D7E000811
:100120002D7E00082D7E00082D7E00082D7E000803
:100130002D7E00082D7E00082D7E00082D7E0008F3
:100140002D7E00082D7E00082D7E00082D7E0008E3
:100150002D7E00082D7E00082D7E00082D7E0008D3
:100160002D7E00082D7E00082D7E00082D7E0008C3
:100170002D7E00082D7E00082D7E00080000000066
:100180002D7E00082D7E00082D7E00082D7E0008A3
:100190002D7E00082D7E00082D7E00082D7E000893
:1001A0002D7E00082D7E00082D7E00082D7E000883
:1001B0002D7E00082D7E00082D7E00082D7E000873
:0801C0002D7E00082D7E0008D1
:1001D00010B5054C237833B9044B13B10448AFF381
:1001E00000800123237010BD0002002000000000E9
:1001F0009CA0000808B5034B1BB103490348AFF3AB
:10020000008008BD00000000040200209CA000083F
:1002100006F05CBA06F060BA08B506F057FA4FF47B
:100220007A73B0FBF3F008BD08B506F055FA4FF449
:100230007A73B0FBF3F008BD10B5064C206818B116
:1002400001F0FFFA00232360606801F0F5FA002353
:10025000636010BD1C0200202DE9F341164D174FBD
:100260002C8BE88A1B3424F00304604301F0D2FA9B
:10027000786038B10421E88A01F0E0FA3860B8B952
:10028000FFF7DAFF4FF0FF300FE07B6808F101085D
:10029000002201A93344264438685B60019301F0D1
:1002A000D2FAEB8A4345F0D8002002B0BDE8F081D5
:1002B0000026B046F5E700BF400200201C020020E7
:1002C0000D4B1B8B834207B503D2002003B05DF8B2
:1002D00004FB002301AA6946CDE90033074B1868E7
:1002E00001F0B9FA00980028EFD043689842ECD1A9
:1002F000012340F8083BE9E7400200201C020020EF
:100300001C4B1B8B834273B51B4D0BD22A781AB939
:100310000024204602B070BD02461849002000F0BB
:1003200085FBF5E70026164B01A9324618680196B1
:1003300001F08FFA019C3CB92B78002BE8D01149D1
:10034000204600F073FBE4E763689C4205D02A78FE
:10035000002ADDD022460C49E0E7EB7823B12246A3
:100360000A49032000F062FB019C012344F8083B8A
:10037000CFE700BF400200200000002030A20008AC
:100380001C02002069A200087DA200089EA20008AD
:1003900007B5B0B1A0F108039A07009311D150F846
:1003A000042C93420DD150F8083C53B1013B40F866
:1003B000083C33B9019301AA034B6946186801F060
:1003C00045FA03B05DF804FB1C02002013B501469A
:1003D00068B1A0F108021C4C12F00300019208D091
:1003E000237823B10A461949002000F01FFB02B010
:1003F00010BD51F8043C9A4205D02378002BF6D06A
:100400000A461349F1E751F8083C23B9217800293D
:10041000EDD01049E8E7013B41F8083C33B12178C1
:100420000029E4D00C4900F001FBE0E7E3781BB1C0
:100430000A49032000F0FAFA094B002201A91868C2
:1004400001F001FAD3E700BF00000020A6A20008D7
:10045000CCA20008F0A200080DA3000830A30008F9
:100460001C02002038B5044660B14089FFF748FF00
:10047000054628B1044B21461A8B103207F004FDC3
:10048000284638BD0546FBE740020020014B1868AE
:1004900001F0E3B91C020020014B188B10307047AB
:1004A00040020020014B188B704700BF4002002023
:1004B00013B50446002201A9E06801F0CAF9012839
:1004C00001D002B010BD01980028F3D0FFF77EFFE5
:1004D000F0E770470020704713B504460191B8B1AA
:1004E000002201A9C06801F0AEF9012814D00B4B1D
:1004F0001B7853B1E2681046009201F0AEF9009A01
:1005000003460749002000F091FA4FF0FF3001E068
:100510006FF0010002B010BD0020FBE700000020DA
:1005200039A300082DE9F0412B4C1C212B4D207CD8
:1005300001F072F9286058B9294B1B781BB94FF0AC
:10054000FF30BDE8F081227C264900F06FFAF6E723
:10055000281D01F091F9012808D0214B1B78002BB0
:10056000EDD02149002000F061FAE8E7FFF750FEE6
:1005700007F098FD07F0C4FDE37CC3F13F020133AF
:1005800090FBF2F101FB12001844287205F10C00F7
:1005900001F072F901281AD0114B1B78002BCED034
:1005A0001249DFE72B680421607C08FB063701F065
:1005B00045F9F86028B90A4B1B78002BBFD00C49CD
:1005C000D1E70136237CB342ECDC0020B9E70026FA
:1005D0004FF01C08F6E700BF400200202402002074
:1005E0000000002058A300087DA30008A3A3000872
:1005F000CAA30008F8B50D4C23689BB9F8BD07FBEA
:100600000500C06808B101F01CF90135337C206891
:10061000AB42F4D801F010F90023C4E90033E360E1
:100620002372EBE70025024E1C27EFE7240200208F
:10063000400200200B4B002270B51E7C00EA010432
:10064000094B1B68964201DC002070BD1D881846CE
:10065000B5F5807F03D15D680D40A542F5D001322C
:100660001C33EFE74002002024020020F8B5244D9F
:1006700006464FF0FF31281D01F018F901280AD075
:10068000204B1B7813B900242046F8BD1E490020DA
:1006900000F0CCF9F7E71D4F00222B7C4FF01C0C2B
:1006A000397C1446286891421ADC54B162782ABB1E
:1006B000002226702B74C4E90122C4E9042201221D
:1006C0006270134801F00CF9002CDDD10D4B1B7842
:1006D000002BD8D03A7C20460E4900F0A7F9D3E78A
:1006E0000133B3FBF1F401FB14330CFB030494F866
:1006F00001E0BEF1000FDBD00132D4E70024E0E7D7
:100700002402002000000020EFA300084002002087
:100710002802002009A4000870B5064600200D46F6
:10072000FFF7A4FF044638B1C0E90165FFF770FD8B
:1007300060612046FFF7BCFE204670BD38B5044618
:1007400040B1457845B9174B587920B11649052075
:1007500000F06CF9002038BD4FF0FF31134801F074
:10076000A5F8012809D00F4B1B781BB110490020B8
:1007700000F05CF96FF00200EDE70025204665709F
:10078000FFF796FE206948B12378012B06D1A369B3
:1007900013F4885F02D001F054F82561034801F09A
:1007A0009FF8D7E70000002025A4000828020020B9
:1007B000EFA300080121FFF7C1BF2DE9F843DFF8DF
:1007C000348100F00300089D0026D8F81C30002773
:1007D00001F01F0160F39F761D4398F8003060F32D
:1007E0009F7702F03F0203F01F0361F3185763F392
:1007F000185663F35D6761F35D6662F3933762F3E6
:100800000D262A066FF3070748BF25F040056FF352
:10081000070615F001040BD02F4B1B781BB90024E1
:100820002046BDE8F8832D49002000F0FFF8F6E7E8
:1008300015F0040908D0284B1B78002BEFD028496D
:10084000204600F0F3F8EBE715F0100405D0224B3A
:100850001B78002BE3D02349E6E76B0605D51E4B3A
:100860001B78002BDBD02049EAE7204C4FF0FF310A
:1008700004F10C0001F01AF80128D0D198F8138087
:1008800094F8089008F101085FFA88F8237A013398
:10089000DBB24B45237201D1002416E03F2B4FF40D
:1008A0007C2188BF84F80880237A03F03F0363F338
:1008B000933663F30D273046FFF7BCFE0028E5D1E1
:1008C00039463046FFF728FF0446094801F008F88A
:1008D000002CA5D0A561A3E70000002039A40008E2
:1008E00084A40008DFA4000836A500082402002024
:1008F00030020020400200204068C0F3853070477D
:10090000407900F03F007047C088C0F30410704782
:10091000C079C0F34400704700797047F0B50024F7
:1009200087B0124D124E134F2B7CA34201D807B053
:10093000F0BD32681C23384603FB0422116953784A
:100940000491517901F03F0103915168C1F3853160
:100950000291D188C1F304110191D179C1F344010D
:100960000091214607F010FB0134DDE74002002032
:10097000240200208FA500082DE9F047204FA2B0E7
:1009800006460D463C7C4FF01C09DFF878800A2CA7
:10099000DFF874A08CBF0A3C00243B7CA34203D840
:1009A000002022B0BDE8F087D8F80030642109A803
:1009B00009FB04331A6906925A7902F03F02059244
:1009C0005A68C2F385320492DA88C2F304120392A1
:1009D000DA79C2F3440202925A78CDE90032234612
:1009E000524607F045FC2A4609A9304607F04AFD61
:1009F00009A800F0D5FF2D1A002DD1DD0134CCE778
:100A00004002002024020020BEA50008024B1B7CEF
:100A10000360024B18687047400200202402002047
:100A2000014B1860704700BF3802002006280EB442
:100A300033B5059C10D8124B1B5C6BB1431E11499A
:100A4000DBB20D68052B96BF0F4A1223D35606AAB8
:100A5000019235B12146A84702B0BDE8304003B04D
:100A60007047D8B200F07BFF0199204607F068FD7F
:100A7000064807F00FFBF02000F071FFECE700BF25
:100A80000000002038020020B4A00008ECA50008F7
:100A900006289CBF014B1954704700BF000000207E
:100AA00006289ABF014B185C002070470000002008
:100AB00006289FBF024A135C83F00103135470475A
:100AC0000000002040BA80B2704740BA80B2704740
:100AD00000BA7047FFF7FCBF034608BA19BA70475F
:100AE000FFF7FABF40BA80B27047704740BA80B291
:100AF00070477047FFF7ECBF7047FFF7E9BF7047DB
:100B0000FFF7EABF7047FFF7E7BF704710EE100A24
:100B100008B5FFF7DDFF00EE100A08BD10EE100A61
:100B200008B5FFF7D5FF00EE100A08BD51EC100B19
:100B300008B5FFF7D1FF41EC100B08BD51EC100BCD
:100B400008B5FFF7C9FF41EC100B08BD38B5074BDE
:100B500005461C680CB9204638BD0A222946206883
:100B600007F06EFC0028F6D0E46BF3E73C020020AF
:100B700038B500230546C3630B4B1C681CB91860CD
:100B8000204638BD0446A5420AD00A2221682868BA
:100B900007F056FC20B1E06B0028F3D1E563F0E7E5
:100BA0006FF00600EDE700BF3C020020014B186823
:100BB000704700BF3C0200202DE9FF4190460646E9
:100BC00010460F4601F0B0F9B8F5801F04460D46F7
:100BD00011D30F4B002200F03BFF4D2304460D467E
:100BE0000C4A394630460293CDE9004507F040FBF8
:100BF00004B0BDE8F081B8F5806F07D3064B002242
:100C000000F026FF4B2304460D46E9E74223E7E7C1
:100C10000000B03EEEA500080000503FF0B5164BB6
:100C200099B0164F1C680AAD0CB919B0F0BD11AEE1
:100C3000226B19212846FFF7BFFF626B192130464E
:100C4000FFF7BAFF238A3846CDE90863636BCDE925
:100C50000653236B0593E36A0493A36A0393636AC1
:100C60000293236A0193E36900932168D4E9052381
:100C700007F08AF9E46BD7E73C020020F5A50008ED
:100C8000014B1878704700BF4002002070B5044641
:100C900000F0B4FD174A234604F1200615461868F3
:100CA000083353F8041C1446B34203C42246F6D159
:100CB000FFF7D2FA0446D0B9FFF734FC0446B0B9C6
:100CC00000F09AFA044690B900F00AFB044670B9A5
:100CD0000948FFF74DFFFF23074A0521287800F058
:100CE00013FCFF23044A0521202000F00DFC2046C0
:100CF00070BD00BF400200200800002008B500F0D1
:100D00004FFD00F003FB00F089FAFFF773FCFFF7DB
:100D100093FA202200210248BDE8084007F0C2B83B
:100D200040020020004870474002002070B510F0DB
:100D3000010605460AD0284B1B7813B9002420462B
:100D400070BD26490020FFF771FEF7E710F0100490
:100D500009D0214B1B78002BF0D021493046FFF7FA
:100D600065FE3446EBE710F0040608D01A4B1B78FA
:100D7000002BE3D01B492046FFF758FEDFE710F0B9
:100D8000400405D0144B1B78002BD7D01649E5E75B
:100D900020F4AA7323F001032BB10F4B1B78002B17
:100DA000CCD01249E7E70120FFF760FC0646002897
:100DB000C4D015F480730BD00D4B0421587C00F087
:100DC0003DFD0446306120B93046FFF7F3FCB6E73D
:100DD0000361B561C5E700BF000000208DA60008D3
:100DE000E2A6000839A7000890A70008E9A70008B4
:100DF0004002002007B50A4618B9002003B05DF88C
:100E000004FB00690028F8D001A900F022FD0128A8
:100E1000F3D10198F2E7002307B50A46019318B908
:100E2000002003B05DF804FB4378012BF8D101A941
:100E3000C06800F00EFD0128F2D10198F1E72DE91C
:100E4000F04F04468BB017460E46DFF81C8149B9B7
:100E500098F800301BB13D493046FFF7E7FD6FF0D1
:100E600009006FE05AB998F80030002BF7D003461C
:100E7000C0F3045236493846FFF7D8FDEFE798F83B
:100E80000430C0F3446915680BB3C0F30453E2B2F5
:100E900097F804C0C0F305210992C0F3853A2A6887
:100EA000BCF1FF0F14BFE3469B46B6F80AE0800F83
:100EB0000191CDF810E02749CDF800A0CDE9052B30
:100EC000099ACDE902024A460420FFF7AFFD224B02
:100ED000F4601B784B4524D122075FFA84F90AD5C8
:100EE00098F801301BB11D490120FFF79FFDEB6908
:100EF0000133EB61B3E719F0010F0AD098F8013024
:100F00001BB117490120FFF791FD29F0010969F391
:100F10000704630705D598F80130002BE7D0114985
:100F2000E2E72B8A74890BB19C42E0D8EB6831462A
:100F3000384698470028DAD16A692B6B013223447E
:100F40006A612B630BB0BDE8F08F00BFFFA70008FC
:100F500027A8000846A80008400200208AA8000828
:100F6000E9A800084FA900080000002037B5134683
:100F70000D46044618B111B14278012A09D00D4B33
:100F8000187820B100200C49FFF750FD002003B075
:100F900030BD40890193C0F3041000F0C9FB019BF0
:100FA00002462946A068FFF74AFFB0FA80F04009E0
:100FB000EDE700BF00000020B3A9000830B40C46E4
:100FC00011461A46E57A60F387152046E57230BC73
:100FD000FFF7CCBF2DE9F843099E0746184688461F
:100FE000B34291461C46B8BF3046FFF789F9054623
:100FF00018B900242046BDE8F883002C07DDB9F1BC
:10100000000F04D022464946103006F03DFF6C81A7
:10101000424629463846FFF7A9FF044618B9284634
:10102000FFF7D4F9E6E7F6B141463846FFF7F3FE9D
:1010300005460028DDD0731C42890DD0B2420BD08A
:101040000A4B1B7823B1334609490020FFF7EEFC19
:101050002846FFF7BBF9CCE705F11001089806F028
:1010600013FF6C89DBE70124C4E700BF0000002008
:10107000CCA9000837B51D460A9B00930023FFF753
:101080009CFB044678B1099B29460193089B009379
:10109000DDE90623FFF79EFF05462046FFF78AFBA2
:1010A000284603B030BD0546FAE707B50A4650B1F9
:1010B000836913F4807309D0002301A900690193A7
:1010C00000F0C7FB019803B05DF804FB1846FAE78F
:1010D000F8B5DDE906450646002714F001002F7338
:1010E00009D0254B1B781BB124493846FFF79EFCDD
:1010F0006FF001003EE014F0040708D01E4B1B788F
:1011000013B11F49FFF792FC6FF0040032E014F0B6
:10111000100006D0184B1B78002BF5D01949384623
:10112000F0E7640605D5144B1B78002BECD016496C
:10113000E8E703F03F0402F03F0201F01F03287BC1
:10114000240244EA823242EA0352104B1B7803F035
:101150001F0342EA436242EA867303430846EB6098
:1011600000F0E6FA089B02462946E868FFF767FEAA
:101170000028C9D1F8BD00BF00000020E8A9000880
:101180001FAA000876AA0008C9AA00084002002089
:1011900030B585B080B1C568447BC07B009204F057
:1011A0003F02CDE90113C0F34401C5F38533800943
:1011B000FFF78EFF05B030BD6FF00100FAE700BF0A
:1011C0000B4BDB7C834210D30A4A126802EBC0014E
:1011D00012F83000012801D148687047013302EB52
:1011E000C30112F83330012BF6D00020704700BF46
:1011F000400200206002002008B5064B0821D87C80
:10120000023000F009FB044B1860B0FA80F040098E
:10121000404208BD400200206002002010B5034C8F
:10122000206800F009FB0023236010BD600200204D
:1012300010B50446084654B1042100F0FFFA2061BD
:1012400040B1A369002043F48053A36110BD6FF047
:101250000100FBE74FF0FF30F8E7F8B50A46044617
:10126000F0B1194BFF291949DB7C11D10133DAB2F6
:10127000174E17B2D500336813F832309BB10B7894
:101280001BB114490020FFF7D1FB6FF0030019E0F8
:101290009A42EDD9097819B10F490020FFF7C6FB32
:1012A0006FF001000EE08B782BB113460B492246FC
:1012B0000220FFF7BBFB3368012200201D446C6055
:1012C00003F83720F8BD00BF4002002000000020D6
:1012D0006002002087AB00081EAB0008A1AB00082D
:1012E00010B5084C236853B9074B0821987C00F0CF
:1012F000A5FA2060B0FA80F04009404210BD0020FD
:10130000FCE700BF640200204002002010B5044C3E
:10131000206818B100F095FA0023236010BD00BFCB
:101320006402002008B5064B01464FF0FF321868F2
:1013300000F08FFA012814BF6FF00200002008BDF2
:101340006402002073B50E461546044650B902BB30
:101350001C4B5B78EBB11C49012002B0BDE870402A
:10136000FFF764BB59B9FAB9164B5B781BB1174943
:101370000120FFF75BFB2046FFF728F809E0144B3C
:10138000CDE90010186869462AB900F05CFA012816
:101390000ED102B070BD00F059FA0128F9D0736A7D
:1013A00001337362002DE6D02046FEF7F1FFF0E72F
:1013B000044B5B78002BF2D006490120FFF736FB87
:1013C000EDE700BF00000020BEAB0008E5AB000861
:1013D000640200200FAC0008054B07B500226946E7
:1013E0001868CDE9002200F02EFA03B05DF804FB86
:1013F0006402002008B5084A0846CB891278C3F376
:101400000413934203D0FEF7E1FF002008BD002241
:101410000249FFF797FFF8E740020020080000208C
:101420002DE9F0471D461B688AB0044688461868B7
:101430002449164606F0E2FF002841D062680DF10B
:101440001009214F214B002A18BF1F46052E2CD012
:1014500033461F4A0A21484606F00AFF2B790DF150
:101460001C0AFF2B25D01B4A0A21504606F000FF1C
:10147000CDF80CA02B6825681B68174ACDF80080B2
:10148000D4E90106CDE90193361A3B46284431469A
:1014900006F0EEFE002801DBB0420EDB4FF0FF331A
:1014A0000020E3600AB0BDE8F08700238DF810301B
:1014B000D4E700238DF81C30DAE7636818446060D5
:1014C0000120EFE743AC00088CA6000848AC0008F8
:1014D0004AAC0008B4AC00084EAC000807B5187957
:1014E0001B68FF281B6806D1054806F04DFD01204A
:1014F00003B05DF804FB0090024806F045FDF6E7F6
:101500005AAC000865AC000820281FB51FD0A0F118
:101510002004E4B2DE2C02D90AB105291BD9104CF3
:1015200024785CB18AB11468CDE90012CDE9024398
:101530000C4A03460C490020FFF778FA6FF00100CF
:1015400004B010BD11461046E9E7084CECE7002A4C
:10155000F8D00021084604B0BDE8104000F0FAB809
:1015600000000020BAA0000873AC00088CA6000898
:101570002DE9F04F8BB088466421054602AF06F096
:10158000A7FF00F108030446294623F007030025BE
:101590000246DFF83891ADEB030DDFF834A1DFF838
:1015A00034B102AB184606F080FF3A460555414972
:1015B00006F0C2FF0446002C6FD0204600F0F0F980
:1015C00001286AD907F1100307F10C063A1D4946B4
:1015D0000093204607F10803019606F09DFE0428BB
:1015E0001AD007F110033A1D51462046009307F127
:1015F000080306F091FE032802D1FF23FB600BE0F5
:1016000007F110033A1D59462046009606F084FE65
:1016100003281ED10523BB60002307F11000BB7710
:10162000FFF794FA024678681F2806D8B96805299A
:1016300003D8FB68FF2B00D8D2B91F4B1B782BB106
:1016400023461E4A1E490020FFF7F0F96FF00106FD
:1016500022E007F110033A1D1A49204606F05CFE0D
:10166000022802D10523BB60C7E700233B74D3E700
:10167000B8F1000F16D1DBB2C9B2C0B2FFF744FF18
:10168000064678B10C4B1B7833B1009023460B4AC9
:1016900040460D49FFF7CAF9354628462437BD466E
:1016A000BDE8F08F3A4603490020013506F044FFBB
:1016B000044680E748AC000800000020C9A00008EC
:1016C000D1AC0008C9AC0008E8AC0008B8AC000810
:1016D000C6AC0008BBAC0008002149E7012147E780
:1016E0001FB500230090CDE901310370694604481D
:1016F000039300F05DF8039805B05DF804FB00BFAC
:101700002114000810B500F04BF80448FF23044AE8
:1017100005210078BDE81040FFF7F6BE400200202A
:10172000080000200021014800F042B8DD14000844
:10173000074B53F8302012B103EBC0007047D3F8C9
:10174000000103F58073002818BF1846704700BFDA
:10175000680200201FB581B105290FD00C4C2478F8
:1017600044B100910B49CDE9012303460A4A002008
:10177000FFF75CF96FF0010007E02020074941F80E
:10178000302001EBC0000371002004B010BD00BF89
:10179000000000200AAD0008DAA00008680200205E
:1017A0004FF484720021014806F07CBB68020020DF
:1017B0002DE9F0410F4C05460E460027A046236850
:1017C00073B901370834202FF9D1D8F8003173B13B
:1017D00000223046AC46084B1146BDE8F041604758
:1017E00023460522F9B23046A8470028E9D1BDE8D2
:1017F000F08100BF680200206803002008B5FEF7F2
:101800000BFD034B1A6802B918601B68C01A08BDAB
:101810007003002005F07CBF01FB00F213B51046F9
:10182000019205F075FF044618B1019A002106F0F7
:1018300039FB204602B010BD05F0E6BF002203F0E0
:10184000F0BF04F001BC002304F014B8002304F03E
:10185000F4B804F0C1B904F04FBB04F0A7BB04F026
:10186000BABB000010B50446012004F0DBF820608C
:10187000003818BF012010BD10B504460322002116
:10188000012003F0CEFF206020B100231A46194644
:1018900003F0F0FF012010BD08B518B1006808B1D1
:1018A00004F0D2FB012008BDFFF7F6BF38B5094BA5
:1018B00004460D469B7923B1024607490620FFF7EF
:1018C000B5F82946206804F03CFA431E58425841B6
:1018D00038BD00BF0000002055AD0008FFF7E6BF8F
:1018E000094B9B7910B5044623B1024607490620EF
:1018F000FFF79CF8002320681A46194603F0BAFF48
:10190000431E5842584110BD000000205EAD000843
:10191000FFF7E6BF38B5094B04460D469B7923B166
:10192000024607490620FFF781F82946206804F09F
:10193000F2F8431E5842584138BD00BF0000002055
:101940005EAD000808B505F0F3FA002008BD08B543
:1019500004F0CAFE2823584308BD05F091BF00F0EB
:101960000F0200F0F000531E072B94BF1D3200221F
:1019700030280ED008D810280DD0202814BF002100
:101980000221064806F000BB402814BF00210421B4
:10199000F7E70321F5E70121F3E700BF67AD000892
:1019A000034613F8012B002AFBD1181A013870479F
:1019B00001F0FF01102A2BDB10F0070F08D010F800
:1019C000013B013A8B422DD010F0070F42B3F6D104
:1019D000F0B441EA012141EA014122F007047FF01D
:1019E00000070023F0E80256083C85EA010586EA74
:1019F000010685FA47F5A3FA87F586FA47F6A5FAB0
:101A000087F68EB9EED1F0BC01F0FF0102F00702BB
:101A100032B110F8013B013A83EA010313B1F8D166
:101A20000020704701387047002D06BF3546033847
:101A3000073815F0010F07D1013015F4807F02BF80
:101A4000013015F4C03F0130F0BC0138704700BFD1
:101A500070B54FF0FF0C4CF4E06C1CEA11541DBF44
:101A60001CEA135594EA0C0F95EA0C0F00F0DEF80F
:101A70002C4481EA030621EA4C5123EA4C5350EAF4
:101A8000013518BF52EA033541F4801143F4801345
:101A900038D0A0FB02CE4FF00005E1FB02E506F0D6
:101AA0000042E0FB03E54FF00006E1FB03569CF02B
:101AB000000F18BF4EF0010EA4F1FF04B6F5007F31
:101AC00064F5407404D25FEA4E0E6D4146EB0606A3
:101AD00042EAC62141EA55514FEAC52040EA5E502C
:101AE0004FEACE2EB4F1FD0C88BFBCF5E06F1ED8D6
:101AF000BEF1004F08BF5FEA500E50F1000041EB0D
:101B0000045170BD06F0004646EA010140EA0200B9
:101B100081EA0301B4EB5C04C2BFD4EB0C0541EADB
:101B2000045170BD41F480114FF0000E013C00F3F0
:101B3000AB8014F1360FDEBF002001F0004170BD14
:101B4000C4F10004203C35DA0C341BDC04F114042D
:101B5000C4F1200500FA05F320FA04F001FA05F2B9
:101B600040EA020001F0004221F0004110EBD37086
:101B700021FA04F642EB06015EEA430E08BF20EAB2
:101B8000D37070BDC4F10C04C4F1200500FA04F355
:101B900020FA05F001FA04F240EA020001F00041E7
:101BA00010EBD37041F100015EEA430E08BF20EA5A
:101BB000D37070BDC4F1200500FA05F24EEA020EA2
:101BC00020FA04F301FA05F243EA020321FA04F0D1
:101BD00001F0004121FA04F220EA020000EBD37088
:101BE0005EEA430E08BF20EAD37070BD94F0000F88
:101BF0000FD101F00046400041EB010111F4801FBC
:101C000008BF013CF7D041EA060195F0000F18BF6C
:101C1000704703F00046520043EB030313F4801FA8
:101C200008BF013DF7D043EA0603704794EA0C0F62
:101C30000CEA135518BF95EA0C0F0CD050EA410678
:101C400018BF52EA4306D1D181EA030101F00041F5
:101C50004FF0000070BD50EA410606BF104619461D
:101C600052EA430619D094EA0C0F02D150EA013629
:101C700013D195EA0C0F05D152EA03361CBF10466A
:101C800019460AD181EA030101F0004141F0FE4109
:101C900041F470014FF0000070BD41F0FE4141F48D
:101CA000780170BD81F0004102E000BF83F0004385
:101CB00030B54FEA41044FEA430594EA050F08BFE7
:101CC00090EA020F1FBF54EA000C55EA020C7FEAAB
:101CD000645C7FEA655C00F0E2804FEA5454D4EB28
:101CE0005555B8BF6D420CDD2C4480EA020281EAF2
:101CF000030382EA000083EA010180EA020281EA2A
:101D00000303362D88BF30BD11F0004F4FEA01317B
:101D10004FF4801C4CEA113102D0404261EB41018A
:101D200013F0004F4FEA03334CEA133302D0524210
:101D300063EB430394EA050F00F0A780A4F10104CC
:101D4000D5F1200E0DDB02FA0EFC22FA05F2801806
:101D500041F1000103FA0EF2801843FA05F35941EC
:101D60000EE0A5F120050EF1200E012A03FA0EFC6B
:101D700028BF4CF0020C43FA05F3C01851EBE37195
:101D800001F0004507D54FF0000EDCF1000C7EEBB2
:101D900000006EEB0101B1F5801F1BD3B1F5001FF0
:101DA0000CD349085FEA30004FEA3C0C04F101040F
:101DB0004FEA445212F5800F80F09A80BCF1004F38
:101DC00008BF5FEA500C50F1000041EB045141EABA
:101DD000050130BD5FEA4C0C404141EB0101013C83
:101DE00028BFB1F5801FE9D291F0000F04BF014672
:101DF0000020B1FA81F308BF2033A3F10B03B3F144
:101E000020020CDA0C3208DD02F1140CC2F10C02D3
:101E100001FA0CF021FA02F10CE002F11402D8BF31
:101E2000C2F1200C01FA02F120FA0CFCDCBF41EAFD
:101E30000C019040E41AA2BF01EB0451294330BDCC
:101E40006FEA04041F3C1CDA0C340EDC04F11404A9
:101E5000C4F1200220FA04F001FA02F340EA030080
:101E600021FA04F345EA030130BDC4F10C04C4F1C6
:101E7000200220FA02F001FA04F340EA03002946A6
:101E800030BD21FA04F0294630BD94F0000F83F4F0
:101E9000801306BF81F480110134013D4EE77FEAD3
:101EA000645C18BF7FEA655C29D094EA050F08BF1F
:101EB00090EA020F05D054EA000C04BF1946104600
:101EC00030BD91EA030F1EBF0021002030BD5FEA44
:101ED000545C05D14000494128BF41F0004130BD6C
:101EE00014F580043CBF01F5801130BD01F00045C0
:101EF00045F0FE4141F470014FF0000030BD7FEA33
:101F0000645C1ABF194610467FEA655C1CBF0B462D
:101F1000024650EA013406BF52EA033591EA030F44
:101F200041F4002130BD00BF90F0000F04BF00213C
:101F3000704730B54FF4806404F132044FF000056F
:101F40004FF0000150E700BF90F0000F04BF0021E8
:101F5000704730B54FF4806404F1320410F000454E
:101F600048BF40424FF000013EE700BF42004FEA49
:101F7000E2014FEA31014FEA02701FBF12F07F43C6
:101F800093F07F4F81F06051704732F07F4208BF7D
:101F9000704793F07F4F04BF41F40021704730B584
:101FA0004FF4607401F0004521F000411CE700BFD0
:101FB00050EA010208BF704730B54FF000050AE053
:101FC00050EA010208BF704730B511F0004502D554
:101FD000404261EB41014FF4806404F132045FEA56
:101FE000915C3FF4D8AE4FF003025FEADC0C18BFFF
:101FF00003325FEADC0C18BF033202EBDC02C2F1F1
:10200000200300FA03FC20FA02F001FA03FE40EA82
:102010000E0021FA02F11444BDE600BF53B94AB9DB
:10202000002908BF00281CBF4FF0FF314FF0FF30E0
:1020300000F074B9ADF1080C6DE904CE00F006F8BB
:10204000DDF804E0DDE9022304B070472DE9F04734
:10205000089D04468E46002B4DD18A42944669D98C
:10206000B2FA82F252B101FA02F3C2F1200120FA6F
:1020700001F10CFA02FC41EA030E94404FEA1C48BD
:10208000210CBEFBF8F61FFA8CF708FB16E341EAB9
:10209000034306FB07F199420AD91CEB030306F13F
:1020A000FF3080F01F81994240F21C81023E634460
:1020B0005B1AA4B2B3FBF8F008FB103344EA034404
:1020C00000FB07F7A7420AD91CEB040400F1FF3319
:1020D00080F00A81A74240F207816444023840EA56
:1020E0000640E41B00261DB1D4400023C5E900438F
:1020F0003146BDE8F0878B4209D9002D00F0EF8012
:102100000026C5E9000130463146BDE8F087B3FA44
:1021100083F6002E4AD18B4202D3824200F2F9802C
:10212000841A61EB030301209E46002DE0D0C5E92F
:10213000004EDDE702B9FFDEB2FA82F2002A40F07B
:102140009280A1EB0C014FEA1C471FFA8CFE01267E
:10215000200CB1FBF7F307FB131140EA01410EFB22
:1021600003F0884208D91CEB010103F1FF3802D2C9
:10217000884200F2CB804346091AA4B2B1FBF7F0C3
:1021800007FB101144EA01440EFB00FEA64508D9E6
:102190001CEB040400F1FF3102D2A64500F2BB8023
:1021A0000846A4EB0E0440EA03409CE7C6F1200772
:1021B000B34022FA07FC4CEA030C20FA07F401FAB8
:1021C00006F31C43F9404FEA1C4900FA06F3B1FB41
:1021D000F9F8200C1FFA8CFE09FB181140EA0141A6
:1021E00008FB0EF0884202FA06F20BD91CEB010143
:1021F00008F1FF3A80F08880884240F28580A8F19B
:1022000002086144091AA4B2B1FBF9F009FB1011EC
:1022100044EA014100FB0EFE8E4508D91CEB01018A
:1022200000F1FF346CD28E456AD90238614440EA2D
:102230000840A0FB0294A1EB0E01A142C846A646AD
:1022400056D353D05DB1B3EB080261EB0E0101FA36
:1022500007F722FA06F3F1401F43C5E90071002693
:102260003146BDE8F087C2F12003D8400CFA02FCE9
:1022700021FA03F3914001434FEA1C471FFA8CFEF9
:10228000B3FBF7F007FB10360B0C43EA064300FBE9
:102290000EF69E4204FA02F408D91CEB030300F187
:1022A000FF382FD29E422DD9023863449B1B89B23E
:1022B000B3FBF7F607FB163341EA034106FB0EF3C7
:1022C0008B4208D91CEB010106F1FF3816D28B4274
:1022D00014D9023E6144C91A46EA004638E72E4640
:1022E000284605E70646E3E61846F8E64B45A9D238
:1022F000B9EB020864EB0C0E0138A3E74646EAE7A7
:10230000204694E74046D1E7D0467BE7023B614454
:1023100032E7304609E76444023842E7704700BFBD
:10232000F0B58DB000240794089409940A940B9496
:10233000364B1A6B42F004021A631A6B02F0040265
:102340000192019A1A6B42F080021A631A6B02F032
:1023500080020292029A1A6B42F001021A631A6B0F
:1023600002F001020392039A1A6B42F002021A630E
:102370001A6B02F002020492049A1A6B42F00802ED
:102380001A631A6B02F008020592059A1A6B42F062
:1023900040021A631B6B03F040030693069B1C4F1D
:1023A000224644F28101384601F0BEFE194D224614
:1023B0004021284601F0B8FE4FF4005307934FF434
:1023C00088130893099407A9134801F0B1FD44F25A
:1023D000810307930126089609940A9407A93846B1
:1023E00001F0A6FD40230793089609940A9407A9D3
:1023F000284601F09DFD802307930894099407A9BE
:10240000284601F095FD0DB0F0BD00BF0038024038
:1024100000040240001802400008024008B50121F3
:10242000034801F087FEC82005F0D8F8F7E700BFA1
:102430000004024008B54FF48041044801F07AFEE0
:102440004FF4487005F0CAF8F5E700BF00040240F9
:1024500030B583B017E0E218052111740133012B68
:10246000F9D9002221462846FEF780FD40BB2046D0
:10247000FDF7ACFF2846FEF79DF9FDF7C9FE40F6D3
:10248000B83005F0ABF88021174801F053FEFDF796
:10249000BFFE002300934FF47A730A221349097890
:1024A0000220FEF78AF90028E9D005460220FDF750
:1024B00027FF04460028DAD0022343810023CEE719
:1024C0004FF47A712846FEF7A6FC04460028CED0C9
:1024D000002300E00133012BC9D8E218117CDAB2E5
:1024E0009142F7D0C3E700BF00040240480000203B
:1024F00008B50268034B9A4200D008BD01F08EFE79
:10250000FBE700BF0010004072B6FEE710B51448AC
:10251000144B0360144B00221A7080215970E12182
:102520009970DA701A715A7143604FF40003836036
:102530000E4BC3600E4B036140F2F453436102F053
:1025400055F858B90B4C38220021204605F0AAFC5A
:10255000212323604FF44003636110BDFFF7D4FFD4
:102560001004002000800240740300205C01002061
:10257000BC0000207C03002008B50B480B4B036017
:102580004FF4E133436000238360C36003610C2296
:1025900042618361C3610362436202F0ECFC00B9F3
:1025A00008BDFFF7B1FF00BFC80900200048004088
:1025B00008B50B484FF0A043036006234360022296
:1025C000C2600023036182610122C261036243622F
:1025D000C262036302F000FD00B908BDFFF794FF7B
:1025E000C004002008B51A481A4B03600423436056
:1025F00000238360C3604FF4403202614FF4401205
:102600004261037643768376C3760377437700F09F
:1026100023FBB0B9104900234B618B610B610B6048
:102620004B608B60CB600123CB610B620E234B624E
:10263000074800F0B7FB30B9054800F04FFC20B95F
:1026400008BDFFF761FFFFF75FFFFFF75DFF00BF0A
:10265000E803002000640040B403002000B595B0FA
:102660003022002108A805F01DFC002303930493E9
:1026700005930693079301F067FD204B1A6C42F017
:1026800080521A641B6C03F080530193019B1C4A17
:10269000136823F4404343F480431360136803F446
:1026A00040430293029B012308934FF4A023099314
:1026B00002230E934FF480020F92042210924822BC
:1026C000119212930323139308A800F0DDFD80B943
:1026D0000F23039302210491002305934FF48052AA
:1026E0000692079303A801F053F820B915B05DF8DE
:1026F00004FBFFF709FFFFF707FF00BF00380240A8
:102700000070004030B59BB001F07CFDFFF7A6FFE4
:10271000FFF706FEFFF7FAFEFFF72EFFFFF748FF71
:10272000FFF760FF002408E0022C8CBF002101218C
:102730002046FEF7ADF90134E4B2062CF4D9374B4C
:102740009B78002B5BD101238DF84830344B1393D9
:10275000344B1493344B15930A238DF858308DF86D
:10276000593019228DF85A2018228DF85B20142236
:102770008DF85C20ADF85E304FF48073ADF86030BA
:102780000023199312A8FEF781FA024618B1234BD1
:102790001B78002B38D102AC40252A460021204668
:1027A00005F080FB21480290214B0493214B0593B7
:1027B000ADF81850019401A905F022FA019A42B32C
:1027C000FF2300212020FEF79FFE04F059FE1A4A45
:1027D00000211A4804F096FE194B1860194A00218E
:1027E000194804F08FFE194B1860194A0021194846
:1027F00004F088FE184B186004F060FEFEE71749ED
:102800000220FEF713F99EE715490020FEF70EF9A6
:10281000C1E7144B01221A70D7E700BF0000002067
:1028200014A1000820A1000828A1000854A1000854
:10283000E8030020517C0008C8A100081D240008FE
:10284000E4030020A4A1000851240008E0030020B4
:1028500080A1000835240008DC03002000A1000846
:1028600034A1000848000020FEE7FEE7FEE7FEE78F
:10287000FEE7704708B5024800F0E0FB08BD00BF66
:10288000E803002008B5024801F05CFF08BD00BF66
:10289000500A002000B583B00D4B1A6C42F08052F4
:1028A0001A641A6C02F080520092009A5A6C42F438
:1028B00080425A645B6C03F480430193019B0022C5
:1028C0000F216FF0010001F059FC03B05DF804FB2B
:1028D00000380240F0B589B00023039304930593B8
:1028E0000693079302681F4B9A4201D009B0F0BDCE
:1028F00003F5EA331A6C42F000721A641A6C02F0A3
:1029000000720192019A1A6B42F002021A631B6B69
:1029100003F002030293029B4FF48073039302249B
:1029200004940123059303270697092607960E4D65
:1029300003A9284601F0FCFA4FF4007303930494B2
:10294000002405940697079603A9284601F0F0FA9B
:1029500022460521142001F011FC142001F044FC52
:10296000C4E700BF0064004000040240F0B58DB031
:1029700000230793089309930A930B9302683A4B39
:102980009A4201D00DB0F0BDA3F590431A6B42F00E
:1029900000721A631A6B02F000720092009A1A6BAE
:1029A00042F080621A631A6B02F080620192019A0F
:1029B0001A6B42F000621A631A6B02F00062029214
:1029C000029A1A6B42F004021A631A6B02F00402B4
:1029D0000392039A1A6B42F001021A631A6B02F017
:1029E00001020492049A1A6B42F002021A631A6BF3
:1029F00002F002020592059A1A6B42F040021A6335
:102A00001B6B03F040030693069B322307930226B9
:102A1000089603250A950B240B9407A9134801F087
:102A200087FA862307930896002709970A950B943F
:102A300007A90F4801F07CFA4FF40053079308965A
:102A400009970A950B9407A90A4801F071FA4FF407
:102A500020530793089609970A950B9407A90648EF
:102A600001F066FA8EE700BF0080024000080240D5
:102A700000000240000402400018024010B5A8B057
:102A800004460021239124912591269127918422A7
:102A900002A805F007FA2268184B9A4201D028B024
:102AA00010BD4FF48073029302A800F06BFF10BBBF
:102AB000134B1A6C42F480221A641A6C02F48022BE
:102AC0000092009A1A6B42F008021A631B6B03F023
:102AD00008030193019B4FF4407323930223249333
:102AE00001232593032326930723279323A905482E
:102AF00001F01EFAD3E7FFF707FDD9E700480040D1
:102B000000380240000C024070B5AAB00446002113
:102B100025912691279128912991842204A805F0D6
:102B2000C1F92368B3F1A04F01D02AB070BD4FF4B2
:102B30000013049304A800F025FF002835D11C4C95
:102B4000236B43F001032363236B03F00103019321
:102B5000019B4FF4E85325930223269300252795E4
:102B6000032328930A232993124E25A9304601F006
:102B7000DFF94FF4007325932695279525A9304654
:102B800001F0D6F9636B43F080036363636B03F07A
:102B900080030293029B636C43F480436364636C21
:102BA00003F480430393039BBFE7FFF7ADFCC6E745
:102BB000003802400000024030B589B00446214B85
:102BC0001A6C42F010021A641B6C03F0100301939C
:102BD000019B02A903A800F0B7FE069BCBB900F049
:102BE00093FE03461848A0FB03239B0C013B1748A8
:102BF000174A026040F2E732C2604360002303617B
:102C00008360836101F0F4FE054630B1284609B0C7
:102C100030BD00F079FE4300E4E70C4801F046FDCA
:102C200005460028F2D1362001F0DEFA0F2C01D93A
:102C30000125EBE700222146362001F09FFA054BE3
:102C40001C60E3E70038024083DE1B43500A00208B
:102C5000001000404C000020002800F0A18038B592
:102C6000044690F82030D3B12268136843F0010382
:102C7000136001F0DFFA054623685A6812F0010F6D
:102C800010D101F0D7FA401B0A28F5D9636A43F442
:102C900000336362052384F82030012038BDFFF73C
:102CA00019FEE1E71A6822F002021A6001F0C2FA86
:102CB000054623685A6812F0020F0DD001F0BAFAE7
:102CC000401B0A28F5D9636A43F400336362052385
:102CD00084F820300120E1E7227E012A3DD01A68E5
:102CE00022F080021A60637E012B3BD022681368B9
:102CF00023F040031360A37E012B39D022681368B0
:102D000023F020031360E37E012B37D02268136881
:102D100043F010031360237F012B35D02268136822
:102D200023F008031360637F012B33D022681368FC
:102D300023F004031360A368E2681343226913437A
:102D4000626913436268013A21681343CB61002032
:102D50006062012384F82030A0E71A6842F0800204
:102D60001A60C0E72268136843F040031360C2E7AB
:102D70002268136843F020031360C4E722681368D5
:102D800023F010031360C6E72268136843F00803BA
:102D90001360C8E72268136843F004031360CAE7AE
:102DA0000120704790F82030013BDBB2012B05D9A0
:102DB000436A43F4802343620120704730B5464B99
:102DC000D3F8002242F00102C3F80022D3F8002217
:102DD00022F47C52C3F80022D3F80022486A42EA67
:102DE0000022C3F800224A6902F01F02012000FA03
:102DF00002F2D3F81C026FEA020C20EA0200C3F8C8
:102E00001C02CB69C3B9344BD3F80C020CEA0000A6
:102E1000C3F80C028C884869CD6844EA0544483000
:102E200043F830408C68088840EA04404C6904F15B
:102E3000480E03EBCE035860CB69012B1ED08B6983
:102E4000002B33D12448D0F804320CEA0303C0F835
:102E500004320B698BBB2048D0F814320CEA030310
:102E6000C0F814320B6A012B2ED01B4AD2F8003264
:102E700023F00103C2F80032002030BD164BD3F816
:102E80000C021043C3F80C028C8848690D6844EAB0
:102E90000544483043F8304088894C698D6840EAE1
:102EA0000540483403EBC4035860C8E70A48D0F82B
:102EB00004321343C0F80432CBE70748D0F8143289
:102EC0001343C0F81432CDE70349D1F81C321A433A
:102ED000C1F81C22C9E700BF0064004070B5044679
:102EE00090F82050EDB2012D06D0436A43F4002340
:102EF00043620125284670BD022380F82030026815
:102F0000136823F00103136001F094F90646236867
:102F10005B6813F0010F0CD001F08CF9831B0A2BB6
:102F2000F5D9636A43F400336362052384F82030E3
:102F3000E0E700256562DDE730B590F820C0046861
:102F4000A4680CF1FF3C5FFA8CFCBCF1010F62D865
:102F500014F0E05F59D0C4F3016C012404FA0CF4BE
:102F60001C608B68002B3DD10D68CB68046843EA78
:102F700045550CF118031B01E55003680C690CF171
:102F8000180E03EB0E135C600B7D012B35D0D1794D
:102F900093791B0443EA0163517943EA01231479CD
:102FA0000168234301EB0C11C1F88C31D17893787F
:102FB0001B0443EA0163517843EA01231178026854
:102FC0000B4302EB0C12C2F8883102680CF1180CAA
:102FD0004FEA0C1C52F80C3043F0010342F80C305D
:102FE00000201DE04C6843EAC403CC6823430CF185
:102FF0001804240105682B51BFE7036803EB0E1387
:10300000596841F480715960C1E7436A43F4001381
:103010004362012004E0436A43F4802343620120B9
:1030200030BD7047704770477047704770477047B2
:103030007047704770477047704770472DE9F84FE9
:10304000054603685C69D3F804809F68D3F80CB028
:10305000D3F810A0D3F8189014F001063BD017F065
:10306000010616D001229A6017F0020F08D117F05E
:10307000040F0CD117F0080606D04FF4805608E074
:10308000FFF7CFFF002604E0FFF7CEFF01E04FF48B
:10309000006617F4807F0DD02B684FF480729A6021
:1030A00017F4007F40F0868017F4806F00F0868070
:1030B00046F4005617F4803F0DD02B684FF4803251
:1030C0009A6017F4003F40F0838017F4802F00F0DF
:1030D000838046F4004614F0080F07D01BF0100F51
:1030E00004D046F400762B681022DA6014F0040F46
:1030F00002D01BF0080F79D114F0020F04D02B6816
:10310000DB6813F0030F78D114F0400F07D01AF0EA
:10311000100F04D046F480662B6810221A6114F058
:10312000200F02D01AF0080F6BD114F0100F04D04A
:103130002B681B6913F0030F6AD114F4003F02D00F
:1031400018F0100F68D114F4803F02D018F0080F67
:1031500069D114F4004F7AD018F0040F74D014F42D
:10316000807F04D019F0010F01D046F0010614F45D
:10317000007F04D019F0020F01D046F0020614F4CB
:10318000806F04D019F0040F01D046F0040614F447
:10319000006F59D019F0700956D0B9F1400F65D0C1
:1031A00058D8B9F1200F5ED0B9F1300F42D146F0B6
:1031B000200644E02846FFF735FF7BE717F4006F51
:1031C00002D046F4804675E72846FFF72EFF71E7E8
:1031D0002846FFF728FF7EE717F4002F02D046F4B9
:1031E000803678E72846FFF721FF74E72B6808222E
:1031F000DA602846FFF71CFF7EE72846FFF717FF37
:1032000082E72B6808221A612846FFF713FF8CE734
:103210002846FFF70EFF90E72B6810225A602846D9
:10322000FFF709FF8FE72B6808225A602846FFF74F
:1032300003FF8EE7B9F1100F01D146F008062A68A6
:10324000936923F0700393612B6804225A609EB93E
:10325000BDE8F88FB9F1500F0BD0B9F1600FEED186
:1032600046F48076EBE746F01006E8E746F04006C5
:10327000E5E746F08006E2E76B6A1E436E62284689
:10328000FFF7DBFEE4E70000002800F0FF8170B5E7
:1032900082B00446036813F0010F29D0954B9B6858
:1032A00003F00C03042B1AD0924B9B6803F00C0321
:1032B000082B0FD06368B3F5803F40D0002B54D16A
:1032C0008C4B1A6822F480321A601A6822F4802229
:1032D0001A6039E0874B5B6813F4800FEAD0854BA6
:1032E0001B6813F4003F03D06368002B00F0D0810B
:1032F000236813F0020F74D07E4B9B6813F00C0F01
:103300005ED07C4B9B6803F00C03082B53D0E36822
:10331000002B00F08980774A136843F001031360A3
:1033200000F088FF0546734B1B6813F0020F72D143
:1033300000F080FF401B0228F5D90320ADE16D4A63
:10334000136843F48033136063682BB300F072FF9B
:103350000546684B1B6813F4003FC9D100F06AFFB3
:10336000401B6428F5D9032097E1B3F5A02F09D0BD
:10337000604B1A6822F480321A601A6822F48022A4
:103380001A60E1E75B4B1A6842F480221A601A68FF
:1033900042F480321A60D7E700F04CFF0546554BE7
:1033A0001B6813F4003FA3D000F044FF401B6428C7
:1033B000F5D9032071E14F4B5B6813F4800FA6D160
:1033C0004C4B1B6813F0020F03D0E368012B40F055
:1033D0006181484A136823F0F803216943EAC10375
:1033E0001360236813F0080F46D0636983B3414A22
:1033F000536F43F00103536700F01CFF05463D4B3C
:103400005B6F13F0020F37D100F014FF401B02284E
:10341000F5D9032041E1374A136823F0F803216905
:1034200043EAC1031360DCE7324A136823F0010367
:10343000136000F0FFFE05462E4B1B6813F0020FD1
:10344000CFD000F0F7FE401B0228F5D9032024E17D
:10345000284A536F23F00103536700F0EBFE054643
:10346000244B5B6F13F0020F06D000F0E3FE401B0D
:103470000228F5D9032010E1236813F0040F7DD052
:103480001C4B1B6C13F0805F1ED11A4B1A6C42F060
:1034900080521A641B6C03F080530193019B012539
:1034A000154B1B6813F4807F10D0A368012B25D027
:1034B000002B3BD10F4B1A6F22F001021A671A6FD3
:1034C00022F004021A671EE00025E9E70A4A1368A1
:1034D00043F48073136000F0ADFE0646064B1B6894
:1034E00013F4807FE1D100F0A5FE801B6428F5D99C
:1034F0000320D2E000380240007000406E4A136F93
:1035000043F001031367A36833B300F093FE06464C
:10351000694B1B6F13F0020F2FD100F08BFE801B45
:1035200041F288339842F3D90320B6E0052B09D045
:10353000614B1A6F22F001021A671A6F22F004021F
:103540001A67E0E75C4B1A6F42F004021A671A6FC1
:1035500042F001021A67D6E700F06CFE0646564BB1
:103560001B6F13F0020F08D000F064FE801B41F2C5
:1035700088339842F3D903208FE0FDB9A369002B6B
:1035800000F08A804C4A926802F00C02082A58D057
:10359000022B19D0484A136823F08073136000F09F
:1035A00049FE0446444B1B6813F0007F47D000F0EF
:1035B00041FE001B0228F5D903206EE03E4A136C41
:1035C00023F080531364D9E73B4A136823F08073D8
:1035D000136000F02FFE0546374B1B6813F0007F89
:1035E00006D000F027FE401B0228F5D9032054E046
:1035F000E369226A1343626A43EA8213A26A5208A9
:10360000013A43EA0243E26A43EA026343F00053A9
:10361000294A5360136843F08073136000F00AFE78
:103620000446254B1B6813F0007F06D100F002FE14
:10363000001B0228F5D903202FE000202DE00020F8
:103640002BE01D4A5268012B29D002F48003E16966
:103650008B4226D102F03F03216A8B4223D1616A5B
:1036600047F6C0731340B3EB811F1ED102F4403103
:10367000A36A5B08013BB1EB034F18D102F0706203
:10368000E36AB2EB036F14D1002006E0012070471B
:10369000012002E0012000E0002002B070BD012006
:1036A000FBE70120F9E70120F7E70120F5E701201A
:1036B000F3E70120F1E700BF0038024008B5314BC5
:1036C0009B6803F00C03042B57D0082B57D12D4BCC
:1036D0005A6802F03F025B6813F4800F2AD0294B2E
:1036E0005968C1F3881C4FEA4C11B1EB0C006EEB2A
:1036F0000E0E4FEA8E1343EA90638101091A63EBC1
:103700000E03DB0043EA5173C90011EB0C0C43F1CB
:103710000003590200234FEA4C2041EADC51FEF736
:103720007DFC184B5B68C3F3014301335B00B0FBC6
:10373000F3F025E0134B5968C1F3881C4FEA4C1194
:10374000B1EB0C006EEB0E0E4FEA8E1343EA906362
:103750008101091A63EB0E03DB0043EA5173C900D0
:1037600011EB0C0C43F10003990200234FEA8C206B
:1037700041EA9C51FEF752FCD3E7034800E00348BE
:1037800008BD00BF0038024000127A000024F40097
:10379000002800F0A08070B50D460446524B1B680F
:1037A00003F00F038B420BD24F4A136823F00F0331
:1037B0000B431360136803F00F038B4240F08D80BE
:1037C000236813F0020F17D013F0040F04D0474AF8
:1037D000936843F4E0539360236813F0080F04D018
:1037E000424A936843F460439360404A936823F0ED
:1037F000F003A1680B439360236813F0010F31D0ED
:103800006368012B20D0022B25D0384A126812F0B1
:10381000020F64D035498A6822F0030213438B609B
:1038200000F008FD0646314B9B6803F00C0362680C
:10383000B3EB820F16D000F0FDFC801B41F2883301
:103840009842F0D9032045E0284A126812F4003F5C
:10385000E0D101203EE0254A126812F0007FD9D164
:10386000012037E0204B1B6803F00F03AB420AD95D
:103870001D4A136823F00F032B431360136803F0F2
:103880000F03AB422DD1236813F0040F06D0174A63
:10389000936823F4E053E1680B439360236813F0CB
:1038A000080F07D0114A936823F46043216943EA63
:1038B000C1039360FFF702FF0C4B9B68C3F3031334
:1038C0000B4AD35CD8400B4B18600B4B1868FFF7C2
:1038D00073F9002070BD012070470120FAE7012034
:1038E000F8E70120F6E700BF003C02400038024044
:1038F000ECA10008500000204C000020014B18688B
:10390000704700BF5000002008B5FFF7F7FF044BD9
:103910009B68C3F38223034AD35CD84008BD00BF31
:1039200000380240FCA1000808B5FFF7E7FF044B90
:103930009B68C3F34233034AD35CD84008BD00BF41
:1039400000380240FCA100080F2303600B4B9A686B
:1039500002F0030242609A6802F0F00282609A6804
:1039600002F4E052C2609B68DB0803F4E053036199
:10397000034B1B6803F00F030B60704700380240D5
:10398000003C0240F0B583B00446066816F001061C
:103990000DD0A74B9A6822F400029A609A68416B96
:1039A0000A439A60436B002B00F03981002625689A
:1039B00015F4002511D09E4AD2F88C3023F4401320
:1039C000E16B0B43C2F88C30E36BB3F5801F00F062
:1039D0002881002B00F027810025236813F4801F25
:1039E0000FD0934AD2F88C3023F44003216C0B4360
:1039F000C2F88C30236CB3F5800F00F0168103B948
:103A00000125236813F0807F00D0012613F0200FDA
:103A100040F01081236813F0100F0CD0844BD3F8C2
:103A20008C2022F08072C3F88C20D3F88C20A16BFC
:103A30000A43C3F88C20236813F4804F08D07C4AD3
:103A4000D2F8903023F44033616E0B43C2F89030CB
:103A5000236813F4004F08D0754AD2F8903023F44D
:103A60004023A16E0B43C2F89030236813F4803FCB
:103A700008D06F4AD2F8903023F44013E16E0B4324
:103A8000C2F89030236813F4003F08D0684AD2F897
:103A9000903023F44003216F0B43C2F89030236829
:103AA00013F0400F08D0624AD2F8903023F003039D
:103AB000616C0B43C2F89030236813F0800F08D07C
:103AC0005B4AD2F8903023F00C03A16C0B43C2F890
:103AD0009030236813F4807F08D0554AD2F8903094
:103AE00023F03003E16C0B43C2F89030236813F4E9
:103AF000007F08D04E4AD2F8903023F0C003216DE9
:103B00000B43C2F89030236813F4806F08D0484A02
:103B1000D2F8903023F44073616D0B43C2F89030BB
:103B2000236813F4006F08D0414AD2F8903023F490
:103B30004063A16D0B43C2F89030236813F4805F9B
:103B400008D03B4AD2F8903023F44053E16D0B4348
:103B5000C2F89030236813F4005F08D0344AD2F8DA
:103B6000903023F44043216E0B43C2F89030236819
:103B700013F4800F08D02E4AD2F8903023F08063DF
:103B8000A16F0B43C2F89030236813F4001F0DD0CF
:103B9000274AD2F8903023F00063E16F0B43C2F85C
:103BA0009030E36FB3F1006F00F0AA80236813F048
:103BB000080F00D0012513F4802F08D01C4AD2F83A
:103BC000903023F04073616F0B43C2F8903023684C
:103BD00013F4000F09D0164AD2F8903023F0805326
:103BE000D4F880100B43C2F8903026B9236813F044
:103BF000007F00F005810E4A136823F08063136094
:103C000000F018FB06460A4B1B6813F0006F79D0D2
:103C100000F010FB801B6428F5D90320F3E0012697
:103C2000C5E60126D5E60125D7E60126E7E600BF71
:103C3000003802407F4B1A6C42F080521A641B6CB1
:103C400003F080530193019B7B4A136843F4807314
:103C5000136000F0EFFA0746774B1B6813F4807F80
:103C600006D100F0E7FAC01B6428F5D90320CAE0AA
:103C7000704B1B6F13F4407315D0226B02F440722B
:103C80009A4210D06B4B1A6F22F44072196F41F4B4
:103C900080311967196F21F4803119671A671B6F1A
:103CA00013F0010F12D1236B03F44072B2F5407F81
:103CB0001DD0604A936823F4F81393605D490B6F3D
:103CC000226BC2F30B0213430B67A3E600F0B2FAB8
:103CD0000746584B1B6F13F0020FE4D100F0AAFA0D
:103CE000C01B41F288339842F3D903208BE051483E
:103CF000826822F4F812514919400A438260DDE7D4
:103D0000012553E7236813F0010F13D0636B8BB9C0
:103D1000484AD2F88430D2F88410606803F4403303
:103D200043EA801301F070610B43A16843EA017319
:103D3000C2F88430236813F4002F03D0E26BB2F58D
:103D4000801F06D013F4801F1ED0236CB3F5800FA4
:103D50001AD1384AD2F88430D2F88410606803F45B
:103D6000403343EA8013E06843EA006301F0E04136
:103D70000B43C2F88430D2F88C3023F01F03616A01
:103D800001390B43C2F88C30236813F0807F11D0C7
:103D9000284AD2F88400D2F88410666823691B048C
:103DA00043EA861300F07060034301F0E0410B43E7
:103DB000C2F88430236813F0007F0DD06268236955
:103DC0001B0443EA8213E26843EA0263A26843EAFF
:103DD0000273184AC2F88430164A136843F08063AD
:103DE000136000F027FA0646124B1B6813F0006FB1
:103DF00006D100F01FFA801B6428F5D9032002E0E9
:103E0000012D02D0002003B0F0BD0A4A136823F050
:103E10008053136000F00EFA0546064B1B6813F042
:103E2000005F0DD000F006FA401B6428F5D903208E
:103E3000E9E700BF0038024000700040FFFCFF0FC0
:103E4000236813F4002F01D0E26B22B113F4801F1A
:103E50001DD0236CDBB9354AD2F88830D2F88810EF
:103E6000606903F4403343EA8013A06943EA0063C6
:103E700001F0E0410B43C2F88830D2F88C3023F4D3
:103E8000F853A16A013943EA0123C2F88C30236850
:103E900013F4001F03D0E36FB3F1006F31D0236838
:103EA00013F0080F19D0214AD2F88810D2F88830C0
:103EB000606903F4403343EA801301F070610B43FF
:103EC000E16943EA0173C2F88830D2F88C3023F4F8
:103ED0004033E16A0B43C2F88C30144A136843F054
:103EE0008053136000F0A6F90446104B1B6813F0D2
:103EF000005F19D100F09EF9001B6428F5D903205A
:103F000081E70A4AD2F88800D2F888106569236AE6
:103F10001B0443EA851300F07060034301F0E041A5
:103F20000B43C2F88830BAE700206CE70038024043
:103F300000230F2B00F2EF8070B582B061E085683E
:103F40005E000324B44025EA0405CC68B4402C4349
:103F50008460456825EA02054C68C4F300129A4063
:103F60002A4342605BE0DC08083450F8246003F028
:103F7000070295000F22AA4026EA020E0A69AA400B
:103F800042EA0E0240F824205DE0092200E000220F
:103F900002FA0EF22A4302345F4D45F824205F4AAC
:103FA00094686FEA0C0224EA0C054E6816F4801F30
:103FB00001D04CEA0405594CA560E46802EA040506
:103FC0004E6816F4001F01D04CEA0405534CE5601E
:103FD000646802EA04054E6816F4003F01D04CEA1A
:103FE00004054E4C6560246822404D6815F4803FFE
:103FF00001D04CEA0402494C226001330F2B00F23D
:10400000888001229A400C6804EA020C32EA040417
:10401000F3D14C6804F00304013C012C8FD94A68A9
:1040200002F00302032A09D0C4685D000322AA40FB
:1040300024EA02048A68AA402243C2604A6802F065
:104040000302022A8FD004684FEA430E032202FAC9
:104050000EF224EA02044A6802F0030202FA0EF2A7
:10406000224302604A6812F4403FC6D02C4A546C86
:1040700044F480445464526C02F480420192019AE8
:104080009C08A51C244A52F8255003F003024FEA6D
:10409000820E0F2202FA0EF225EA0205214A904210
:1040A0003FF475AF02F58062904222D002F5806243
:1040B000904220D002F5806290421ED002F58062CC
:1040C00090421CD002F5806290421AD002F58062C4
:1040D000904218D002F58062904216D002F58062BC
:1040E000904214D002F5806290423FF44EAF0A2213
:1040F0004EE701224CE702224AE7032248E7042266
:1041000046E7052244E7062242E7072240E7082265
:104110003EE702B070BD704700380140003C0140EE
:1041200000380240000002400AB181617047090472
:1041300081617047436901EA030221EA030141EA10
:104140000241816170470000024A136843F48073A2
:1041500013607047007000400649CB6823F4E063A9
:104160001B041B0C000200F4E0600343024A1A43E4
:10417000CA60704700ED00E00000FA0500B5174B7B
:10418000DB68C3F30223C3F1070CBCF1040F28BFA3
:104190004FF0040C03F1040EBEF1060F14D9033BDB
:1041A0004FF0FF3E0EFA0CFC21EA0C0199400EFA8A
:1041B00003F322EA03031943002807DB0901C9B20C
:1041C000074B19545DF804FB0023E9E700F00F00EA
:1041D0000901C9B2034B1954F4E700BF00ED00E038
:1041E00000E400E014ED00E0002807DB00F01F020F
:1041F000400901239340024A42F82030704700BF33
:1042000000E100E008B50320FFF7A6FF0F20FEF74E
:10421000D3FCFEF73FFB002008BD0000034A1168F5
:10422000034B1B780B441360704700BF9C0A0020AF
:1042300049000020014B1868704700BF9C0A00200D
:1042400038B50446FFF7F6FF0546B4F1FF3F02D04C
:10425000044B1B781C44FFF7EDFF401BA042FAD330
:1042600038BD00BF490000205079137943EA00238C
:1042700007480B50D07893781B0443EA00635078CA
:1042800043EA002312781343024A8B50704700BF61
:10429000408002404480024030B4002208E0C468FC
:1042A000DC6051F80C3043F4400341F80C3001322B
:1042B000032A1FD8C16802EB82034FEAC30C01EB4B
:1042C000C303002441F80C405C609C60DC60941DDA
:1042D00040F8243051F80C4044F4801441F80C406C
:1042E000022ADCD8541C04EB8404C56805EBC40422
:1042F000DC60D6E700238362C268036803F580535D
:104300001A6130BC704700B54FF0000E03E002693F
:10431000DA600EF1010EBEF1030F29D801690EEB30
:104320008E034FEAC30C01EBC303002241F80C20BB
:104330005A609A60DA601A625A624FF0004241F89D
:104340000C2044F2F4525A605A6822F000425A603B
:104350000EF1120240F82230BEF1020FD7D80169E7
:104360000EF1010202EB820201EBC202DA60D0E739
:104370000023C36503668366C366836502690368B9
:1043800003F58053DA605DF804FB000070B5054664
:104390000C46026813683B491940237C002B60D10E
:1043A0004FF40003607C00285DD14FF4800003438C
:1043B000A0680343E07F43EA004360690343A07FB2
:1043C000002852D14FF400500343207F43EA0033CA
:1043D000A0690343207943EA802394F82000002851
:1043E00045D14FF400700343E07B43EAC013606A99
:1043F000034394F8280043EA00130B4313602B682F
:104400001E680120FFF71CFF2B681E6029688A695F
:1044100022F0BE021204120CA36C1B0494F84C0090
:1044200038BB80200343206D034394F855000128D6
:1044300021D00020034394F8560001281DD000200D
:10444000034394F85400012819D000200343134378
:104450008B612B689C690120FFF7F2FE2B689C6141
:1044600070BD00239EE70020A1E70020ACE70020FC
:10447000B9E70020D6E70820DCE70420E0E70220C7
:10448000E4E700BF0F8120FF70B505460C460268C7
:1044900002F580539B692B491940237B002B4DD19A
:1044A0004FF08063607B43EA4063607F002847D120
:1044B0004FF480100343A07B43EA405360690343F9
:1044C000207F43EAC013A07F43EA8013206A03439E
:1044D00094F8240043EA80030B4302F58052936171
:1044E0002B6803F580539E690120FFF7A9FE2B6816
:1044F00003F580539E612279A36843EA4263A2696F
:1045000013432269134394F8252043EAC213A26A95
:1045100043EA8203226813432A6843F4000302F546
:10452000805213602B6803F580531C680120FFF74D
:1045300087FE2B6803F580531C6070BD0023B1E734
:104540000020B7E7233FDEF870B5A4B0064601258A
:104550008DF83C508DF83D5000240D948DF84B4063
:104560008DF84A508DF848408DF830508DF84C4009
:104570008DF83B4014948DF854401D948DF878408C
:104580001F948DF882408DF880404FF48043109343
:104590004FF4006311938DF881400BA9FFF7F6FEED
:1045A0008DF80C508DF80D508DF81D508DF80E5073
:1045B00005948DF81C408DF81E4008948DF8245009
:1045C0008DF804504FF4803302934FF48003069328
:1045D0004FF4005304938DF825500A9400946946D3
:1045E0003046FFF751FF24B070BD0000002855D0C1
:1045F00030B583B00446D0F88430002B32D0284B3D
:104600005A6C42F480425A645B6C03F48043019319
:10461000019B244B5A6822F400025A605A68A16830
:104620000A435A605B68236803F580531A6842F0B6
:1046300001021A60FFF7FEFD0546236803F580536B
:104640001B6813F0010F13D0FFF7F4FD401BB0F50A
:10465000FA7FF2D90423C4F88830E023C4F8843008
:10466000012019E02323C0F88430FEF77FF9C6E764
:104670002046FFF769FF2046FFF70EFE2046FFF7B2
:1046800042FE626800212046FFF7EEFD0020C4F8DC
:1046900088001023C4F8843003B030BD0120704777
:1046A00000380240003801407047000090F83D306B
:1046B000DBB2012B3AD1022380F83D300268D36887
:1046C00043F00103D36003681A4AB3F1804F18BF67
:1046D00093421DD0A2F57C42934219D002F580622C
:1046E000934215D002F58062934211D002F57842D0
:1046F00093420DD002F57052934209D0A2F5943244
:10470000934205D01A6842F001021A6000207047F7
:104710009968094A0A40062A18BFB2F5803F07D0B7
:104720001A6842F001021A600020704701207047A9
:1047300000207047000001400700010070477047EB
:104740007047704710B5044603681A6912F0020FEB
:1047500011D0DA6812F0020F0DD06FF002021A6168
:104760000123037703689B6913F0030F79D0FFF7E8
:10477000E6FF0023237723681A6912F0040F12D092
:10478000DA6812F0040F0ED06FF004021A610223EF
:10479000237723689B6913F4407F68D02046FFF796
:1047A000CEFF0023237723681A6912F0080F12D076
:1047B000DA6812F0080F0ED06FF008021A610423B5
:1047C00023772368DB6913F0030F57D02046FFF7E8
:1047D000B6FF0023237723681A6912F0100F12D056
:1047E000DA6812F0100F0ED06FF010021A61082371
:1047F00023772368DB6913F4407F46D02046FFF718
:104800009EFF0023237723681A6912F0010F03D05B
:10481000DA6812F0010F3FD123681A6912F0800F95
:1048200003D0DA6812F0800F3DD123681A6912F4C0
:10483000807F03D0DA6812F0800F3BD123681A69B9
:1048400012F0400F03D0DA6812F0400F39D123681C
:104850001A6912F0200F03D0DA6812F0200F37D156
:1048600010BDFFF76BFF2046FFF76AFF81E7204688
:10487000FFF764FF2046FFF763FF92E72046FFF74C
:104880005DFF2046FFF75CFFA3E72046FFF756FFDA
:104890002046FFF755FFB4E76FF001021A6120468A
:1048A000FDF726FEB8E76FF080021A61204600F09F
:1048B000D0F8BAE76FF480721A61204600F0CAF8A7
:1048C000BCE76FF040021A612046FFF73AFFBEE7EF
:1048D0006FF020021A61204600F0BAF8C0E700002D
:1048E00030B503683B4A904214BF4FF0000E4FF0C2
:1048F000010EB0F1804F14BF72464EF00102AAB90A
:10490000354CA04214BF00240124344DA8420DD0E0
:1049100064B904F1804404F58234A04214BF002439
:10492000012405F50065A84200D01CB123F07003F6
:104930004C682343002A33D1274A904214BF0022F7
:104940000122264CA0422BD052BB02F1804202F53C
:104950008232904214BF0022012204F50064A0427A
:104960001ED0EAB91E4A904214BF0022012204F56B
:104970009A34A04214D09AB91A4A904214BF002225
:10498000012204F50064A0420AD04AB9164A9042B6
:1049900014BF00220122A4F59634A04200D022B117
:1049A00023F4407CCB6843EA0C0323F080034A697C
:1049B000134303608A68C2620A6882620B4A9042AB
:1049C00014BF73464EF001030BB10B69036301235F
:1049D000436130BD00000140000800400004004079
:1049E0000044014000180040002000400004014045
:1049F00060B310B5044690F83D3013B3022384F839
:104A00003D30214651F8040BFFF76AFF012384F87B
:104A1000483084F83E3084F83F3084F8403084F8E1
:104A2000413084F8423084F8433084F8443084F8CC
:104A3000453084F8463084F8473084F83D30002013
:104A400010BD80F83C30FFF72FFED7E701207047FC
:104A5000704770477047000010B5044683680269CC
:104A6000134342691343C269134301680868934AB8
:104A7000024013430B602268536823F44053E168FB
:104A80000B435360A269236A1A4321688B6823F49D
:104A9000306313438B602368894A934219D0894A53
:104AA000934229D0884A93423ED0884A934262D0AA
:104AB000874A934271D0874A934200F08380864AA6
:104AC000934200F09480854A934200F0A580102321
:104AD0003AE0834BD3F8903003F00303032B09D85B
:104AE000DFE803F00204AE0601232DE004232BE0EF
:104AF000082329E0102327E0794BD3F8903003F006
:104B00000C030C2B0ED8DFE803F0070D0D0D090D7B
:104B10000D0D9D0D0D0D0B00002315E0042313E07A
:104B2000082311E010230FE06D4BD3F8903003F011
:104B30003003202B00F0888019D8002B00F08680ED
:104B4000102B40F085800423E069B0F5004F00F0A1
:104B5000AB80082B00F20C81DFE813F0E800FB00CB
:104B6000E6000A01FE000A010A010A010101302BD8
:104B700070D10823E8E75A4BD3F8903003F0C00314
:104B8000802B69D005D8002B68D0402B68D1042336
:104B9000DAE7C02B66D10823D6E7514BD3F8903023
:104BA00003F44073B3F5007F5ED006D8002B5DD0D0
:104BB000B3F5807F5CD10423C6E7B3F5407F59D1BC
:104BC0000823C1E7464BD3F8903003F44063B3F5B4
:104BD000006F51D006D8002B50D0B3F5806F4FD165
:104BE0000423B1E7B3F5406F4CD10823ACE73C4B4D
:104BF000D3F8903003F44053B3F5005F44D006D8A7
:104C0000002B43D0B3F5805F42D104239CE7B3F57A
:104C1000405F3FD1082397E7314BD3F8903003F43E
:104C20004043B3F5004F37D005D8BBB3B3F5804F41
:104C300036D1042388E7B3F5404F33D1082383E707
:104C4000022381E702237FE702237DE700237BE73E
:104C5000102379E7102377E7022375E7002373E732
:104C6000102371E710236FE702236DE700236BE742
:104C7000102369E7102367E7022365E7012363E751
:104C8000102361E710235FE702235DE700235BE762
:104C9000102359E7102357E7022355E7002353E772
:104CA000102351E710234FE7082B5BD8DFE803F010
:104CB0001A343A5A375A5A5A1E0000BFF369FFEFA6
:104CC000001001400044004000480040004C0040FB
:104CD000005000400014014000780040007C00407B
:104CE00000380240FEF710FE00283DD062685308ED
:104CF00003EB4000B0FBF2F0A0F110024FF6EF73AF
:104D00009A4233D883B223F00F03C0F34200184312
:104D10002368D860002030E0FEF706FEE4E7FEF7E7
:104D2000CDFCE1E71748E1E7164802E0FEF7ECFDAD
:104D300000B3636800EB5300B0FBF3F0A0F1100286
:104D40004FF6EF739A4217D8236880B2D8600020DC
:104D500013E0FEF7E9FDEBE7FEF7B0FCE8E74FF400
:104D60000040E6E7012008E0002006E0012004E022
:104D7000012002E0002000E001200023A366E3669A
:104D800010BD00BF0024F400436A13F0010F06D0E9
:104D90000268536823F40033816A0B435360436A0B
:104DA00013F0020F06D00268536823F48033C16AFF
:104DB0000B435360436A13F0040F06D00268536834
:104DC00023F48023016B0B435360436A13F0080FF5
:104DD00006D00268536823F40043416B0B435360D1
:104DE000436A13F0100F06D00268936823F48053CF
:104DF000816B0B439360436A13F0200F06D0026867
:104E0000936823F40053C16B0B439360436A13F020
:104E1000400F0AD00268536823F48013016C0B43DF
:104E20005360036CB3F5801F0BD0436A13F0800FFF
:104E300006D00268536823F40023816C0B4353604F
:104E400070470268536823F4C003416C0B435360FE
:104E5000EBE72DE9F84305460F4616469946DDF87F
:104E600020802C68E46937EA04030CBF4FF0010C82
:104E70004FF0000CB44555D1B8F1FF3FF1D0FFF72A
:104E8000D9F9A0EB090040452ED8B8F1000F2BD07E
:104E90002B681A6812F0040FE3D0DA6912F4006F7D
:104EA000DFD04FF400621A622A6852E8003F23F410
:104EB000D07342E800310029F6D12A6802F10803D4
:104EC00053E8003F23F00103083242E80031002993
:104ED000F3D12023EB67C5F88030C5F88430002378
:104EE00085F8783003201EE02A6852E8003F23F45A
:104EF000D07342E800310029F6D12A6802F1080394
:104F000053E8003F23F00103083242E80031002952
:104F1000F3D12023EB67C5F88030002385F8783083
:104F2000032000E00020BDE8F88310B582B00446FD
:104F30000023C0F88430FFF77DF923681B6813F065
:104F4000080F0AD12023E367C4F8803000202066D0
:104F5000606684F8780002B010BD6FF07E43009365
:104F6000034600224FF400112046FFF772FF00288D
:104F7000E8D00320EFE768B310B50446C36F03B36E
:104F80002423E3672268136823F00103136020469B
:104F9000FFF762FD012813D0636ABBB9226853682A
:104FA00023F4904353602268936823F02A039360AC
:104FB0002268136843F0010313602046FFF7B5FF32
:104FC00010BD80F87830FDF759FDD9E72046FFF78E
:104FD000DBFEE3E70120704770B58AB0002800F0DF
:104FE00097800546046890F8BD343BB3032385F8E9
:104FF000BD34E36B13F4807F01D100232B6128685B
:1050000000F002F92C4654F8106BEC460FCCACE8DB
:105010000F000FCCACE80F0094E803008CE803000D
:105020002B1D0ECB304600F0B1F8044658B10223D8
:1050300085F8BD34012420460AB070BD80F8BC3428
:10504000FDF762FDD2E70021286800F00FFA234641
:1050500016E003EBC30205EB8202012182F83D104A
:1050600082F83C30A2F84430002182F8401091646C
:10507000D16403EBC30205EB820251650133DBB25D
:1050800069688B42E5D316E004EBC40305EB8303A8
:10509000002283F87D2283F87C4283F88022C3F8C3
:1050A0008822C3F88C2204EBC40305EB8303C3F806
:1050B00094220134E4B2A142E6D82C4654F8106B95
:1050C000EC460FCCACE80F000FCCACE80F0094E836
:1050D00003008CE803002B1D0ECB304600F0F0F8E7
:1050E000044660B9002385F83830012385F8BD34C3
:1050F0006B6A012B08D0286800F0A6F99BE7022311
:1051000085F8BD34012496E7284600F003F8F2E75D
:10511000012490E7034602680121C0F80015002031
:1051200083F8F404936943F000639361516D024B7B
:105130000B435365704700BF0300001082B000238B
:105140000193019B01330193019A0F4B9A4215D8A9
:105150000369002BF5DA00230193036943F001038F
:105160000361019B01330193019A074B9A4208D8CE
:10517000036913F0010FF4D1002000E0032002B016
:1051800070470320FBE700BF400D030084B010B55B
:10519000044603A880E80E00089B012B1DD1A36BD9
:1051A00023F48033A363E268164B1340E360E368A3
:1051B00023F44013E3600F9B012B09D02046FFF737
:1051C000BDFF069B012B14D0BDE8104004B0704712
:1051D000E36843F48013E360F0E7E36843F04003DF
:1051E000E3602046FFF7AAFFA36B43F48033A36379
:1051F000E7E7A36843F00603A360A36843F0200336
:10520000A360E1E7BFFFBDFF836823F00103836074
:105210000020704782B000230193019B013301936A
:10522000019A0F4B9A4215D80369002BF5DA002337
:105230000193890141F020010161019B0133019338
:10524000019A074B9A4208D8036913F0200FF4D152
:10525000002000E0032002B070470320FBE700BFFE
:10526000400D030082B000230193019B01330193A1
:10527000019A0E4B9A4213D80369002BF5DA0023EA
:10528000019310230361019B01330193019A074BA2
:105290009A4208D8036913F0100FF4D1002000E0FF
:1052A000032002B070470320FBE700BF400D03005E
:1052B000D0F800381943C0F80018002070470000EB
:1052C00084B02DE9F041044607A880E80E000023D1
:1052D00006E003F1400204EB820200215160013339
:1052E0000E2BF6D9119F27BBD4F8043843F00203E4
:1052F000C4F80438A36B23F40013A363236843F0BA
:1053000040032360236843F0800323600023C4F834
:10531000003E04F50065D4F80038C4F800380C9B52
:10532000012B10D1099B4BB900212046FFF7C0FF8C
:105330000DE0A36B43F40013A363E7E701212046CC
:10534000FFF7B6FF03E003212046FFF7B1FF10216E
:105350002046FFF75FFF804608B14FF00108204666
:10536000FFF780FF08B14FF0010800232B616B614C
:10537000EB610AE0C3B94FF00060C2F800090022F7
:105380000A614FF67F328A6001330799994210D93A
:1053900004EB431202F51061D2F800090028E9DBA2
:1053A0000020C2F80009EAE74FF09040C2F8000977
:1053B000E5E700230AE0C3B14FF0904CC2F800CB00
:1053C000002202614FF67F3282600133994211D987
:1053D00004EB431202F53060D2F8006B002EEADBDA
:1053E0004FF0000CC2F800CBEAE74FF0006CC2F8B7
:1053F00000CBE5E72B6923F480732B610023A361C5
:105400006FF0804363610A9B1BB9A36943F01003EB
:10541000A361A2690A4B1343A3610D9B1BB1A3694E
:1054200043F00803A361012F04D04046BDE8F041DA
:1054300004B07047A269034B1343A361F5E700BFB3
:1054400000383C8004000040D0F8003E23F0030305
:10545000C0F8003ED0F8043843F00203C0F8043826
:1054600000207047406900F00100704738B50546DC
:10547000C36823F0C043C360012913D019BBC368BC
:1054800043F08043C36000240120FEF7D9FE0134BD
:105490002846FFF7E7FF08B1312CF5D9322C14D09C
:1054A000002038BDC36843F00053C36000240120CE
:1054B000FEF7C6FE01342846FFF7D4FF0128EDD0E1
:1054C000312CF4D9EAE70120EBE70120E9E70000FD
:1054D000034AD2F8883043F47003C2F8883070472A
:1054E00000ED00E000F1080343604FF0FF328260FE
:1054F000C3600361002303607047002303617047AA
:1055000043684B609A688A605160996008610368DB
:1055100001330360704730B40D68B5F1FF3F11D01F
:1055200000F108031C465B681A68AA42FAD963684E
:105530004B6099608C6061600861036801330360AF
:1055400030BC70470469F2E70369416882688A6089
:10555000416851605A68824206D0002202611A688E
:10556000013A1A601868704782685A60F5E7034686
:10557000406A18B11B6B1868C0F13800704710B54D
:10558000044602F0EFF9A26BE36B9A4204D00024C8
:1055900002F00EFA204610BD0124F9E710B50446CA
:1055A00002F0E0F9A36B23B9012402F001FA2046CE
:1055B00010BD0024F9E770B504461546866B026CF1
:1055C0005AB903681BB100200136A66370BD80681C
:1055D00001F00EFC0023A360F6E76DB9406802F00D
:1055E00053FC226C636813446360A268934219D32E
:1055F000236863602846E7E7C06802F045FC226C38
:105600005142E3689B1AE3602268934202D2A36886
:105610000B44E360022D01D00020D5E726B1013E06
:105620000020D1E72846CFE70020CDE70346026CF3
:105630006AB110B50846D9681144D9609C68A14286
:1056400001D31968D960D96802F01EFC10BD7047FB
:1056500038B5054602F086F995F8454064B201E098
:10566000013C64B2002C0ADD6B6A43B105F12400F1
:1056700001F0FEF90028F3D001F094FAF0E7FF23DF
:1056800085F8453002F094F902F06CF995F8444041
:1056900064B201E0013C64B2002C0ADD2B6943B125
:1056A00005F1100001F0E4F90028F3D001F07AFAD6
:1056B000F0E7FF2385F8443002F07AF938BD38B5B9
:1056C000E0B10D46044602F04DF92368E26B216C0F
:1056D00001FB0230A0600020A0636360013A02FB7E
:1056E0000133E360FF2384F8443084F845300DBB78
:1056F000236973B902F05CF9012038BD4FF0500303
:1057000072B683F31188BFF36F8FBFF34F8F62B60A
:10571000FEE704F1100001F0ABF90028EAD04FF0E9
:10572000E0234FF08052C3F8042DBFF34F8FBFF337
:105730006F8FDFE704F11000FFF7D4FE04F12400BF
:10574000FFF7D0FED6E738B51D46049C0B4649B995
:105750002460E063236401212046FFF7B0FF84F852
:105760004C5038BD2260F4E750B94FF0500372B688
:1057700083F31188BFF36F8FBFF34F8F62B6FEE7DD
:1057800010B584B01C4693B10B1E18BF0123002A2C
:1057900008BF43F00103ABB94FF0500372B683F377
:1057A0001188BFF36F8FBFF34F8F62B6FEE74FF0E4
:1057B000500372B683F31188BFF36F8FBFF34F8F1F
:1057C00062B6FEE7B1FA81F35B09002A18BF43F025
:1057D000010353B94FF0500372B683F31188BFF33E
:1057E0006F8FBFF34F8F62B6FEE750230393039B87
:1057F000502B0AD04FF0500372B683F31188BFF3D9
:105800006F8FBFF34F8F62B6FEE7039B012384F8CF
:10581000463000949DF81830FFF795FF204604B0FD
:1058200010BD50B94FF0500372B683F31188BFF327
:105830006F8FBFF34F8F62B6FEE7F0B583B00C46B3
:1058400015460746A1B101FB00F0503001F060FFA2
:10585000064650B1002380F8463000902B4600F1F8
:10586000500221463846FFF76EFF304603B0F0BDC8
:105870000846EAE7F0B585B0019298B10F461D469B
:105880000446D1B1022D26D1E36B012B23D04FF07A
:10589000500372B683F31188BFF36F8FBFF34F8F3E
:1058A00062B6FEE74FF0500372B683F31188BFF380
:1058B0006F8FBFF34F8F62B6FEE7036C002BE1D012
:1058C0004FF0500372B683F31188BFF36F8FBFF3AD
:1058D0004F8F62B6FEE701F02FFA064668B9019BCA
:1058E000002B4AD04FF0500372B683F31188BFF3F8
:1058F0006F8FBFF34F8F62B6FEE700263DE02A466A
:1059000039462046FFF757FE636A7BB948B14FF02E
:10591000E0234FF08052C3F8042DBFF34F8FBFF345
:105920006F8F02F045F8012005B0F0BD04F12400AE
:1059300001F09EF80028F4D04FF0E0234FF08052A1
:10594000C3F8042DBFF34F8FBFF36F8FE9E702F069
:105950002FF80020E8E702A801F0D2F8012619E0AC
:10596000002384F8443021E0002384F8453023E00C
:105970002046FFF76DFE00F04BFF01F0F3FFA26B36
:10598000E36B9A42BBD3022DB9D0019B002BDED032
:10599000002EE0D002F00CF800F090FE01F0E2FFE3
:1059A00094F8442052B2B2F1FF3FD9D094F8452088
:1059B00052B2B2F1FF3FD7D001F0FAFF01A902A81D
:1059C00001F0AAF8D8B92046FFF7D9FD0028CFD0BA
:1059D000019904F1100001F013F82046FFF738FE9A
:1059E00000F016FF0028C8D14FF0E0234FF080529E
:1059F000C3F8042DBFF34F8FBFF36F8FBDE7204671
:105A0000FFF726FE00F004FF00208DE748B108B53F
:105A1000002181600160C1600B460A46FFF72AFF42
:105A200008BD704710B5024600210120FFF7F9FEBE
:105A30000446FFF7EBFF204610BD2DE9F843A0B167
:105A40000F4616461C460546D1B1022C26D1EB6BFB
:105A5000012B23D04FF0500372B683F31188BFF3AC
:105A60006F8FBFF34F8F62B6FEE74FF0500372B6F1
:105A700083F31188BFF36F8FBFF34F8F62B6FEE7DA
:105A8000036C002BE1D04FF0500372B683F3118802
:105A9000BFF36F8FBFF34F8F62B6FEE702F068F877
:105AA000EFF311894FF0500372B683F31188BFF3FF
:105AB0006F8FBFF34F8F62B6AA6BEB6B9A4206D320
:105AC000022C04D0002089F31188BDE8F88395F8F2
:105AD00045804FFA88F8224639462846FFF76BFD85
